:020000040000FA
:020000000528D1
:040002000034003492
:020008001128BD
:06000A007C208E209520F1
:10001000F601F301831203138B17000000000D2873
:100020001028F00003088301F1000A08F2008A0199
:1000300083120313881E2928831203174F3083125B
:100040000317121576140730F30083120313881276
:100050008812831203138C1C6128761C43287610A7
:10006000851A3F289E3083120317910083120313D1
:1000700090018F0111148312031785165E288312D5
:10008000031388166128F30B46284E280310F40C3E
:100090000508801AF416801EF4125E280310F40C72
:1000A0000310F40C7408F500851E7615F6146F2005
:1000B0008312031712118312031788168312031376
:1000C0008C10831203130C1C6828851211100C105D
:1000D00072088A0071088300F00E700E090075190D
:1000E0000514751D0510F5198514F51D8510751A73
:1000F0000515751E0511080083120313850183126F
:100100000317850183160317850183160313203017
:100110008500831203170030850008008312031343
:100120008B15831203178816080083120313111608
:1001300091168312031390018F01831603130C147D
:100140000800831603138C1483120317783092006F
:0A015000831203174F3091000800DE
:02400E00C63FAB
:00000001FF
