:020000040000FA
:020000000528D1
:040002000034003492
:020008001328BB
:06000A008B209D20A420C4
:10001000B020F601F301831203138B170B170000B6
:1000200000000F281228F00003088301F1000A08DD
:10003000F2008A010B1C302883120313881E30281B
:10004000831203174F309100831203171215761491
:100050000830F300831203138812831203178812E7
:10006000831203138C1C6528761C43287610851A8E
:100070003F289E30831203179100F30362288312F6
:10008000031788166228F30B46284D280310F40C3A
:10009000851AF417851EF41362280310F40C03105C
:1000A000F40C7408F500851E7615F61475185C2896
:1000B000F51C5C287520822083120317121183120D
:1000C00003178816831203138C10831203130C1C5E
:1000D0006E2811100C1083120317051272088A0083
:1000E00071088300F00E700E090075190514751D56
:1000F0000510F5198514F51D8510751A0515751E61
:10010000051108008312031390018F01111483124B
:1001100003170516080083120313850183120317C2
:10012000850183160317850183160313203085008C
:1001300083120317013085000800831203138B1507
:1001400083120317881608008312031311169112E5
:100150008312031390018F01831603130C140800FC
:10016000831603138C1483120317783092008312C2
:0801700003174F309100080055
:02400E00C63FAB
:00000001FF
