:020000040000FA
:020000000528D1
:040002000034003492
:020008001328BB
:06000A00842096209D20D9
:10001000A920F601F301831203138B170B170000BD
:1000200000000F281228F00003088301F1000A08DD
:10003000F2008A0183120313881E2C2883120317EF
:100040004F30910083120317121576140830F30015
:100050008312031388128812831203138C1C6928DD
:10006000761C47287610851A43289E308312031782
:1000700091008312031390018F011114831203174F
:100080000516F30366288312031788166628F30BF8
:100090004A2852280310F40C0508801AF416801E12
:1000A000F41266280310F40C0310F40C7408F50025
:1000B000851E7615F61475186028F51C60287720C3
:1000C0008312031712118312031788168312031366
:1000D0008C10831203130C1C7028051211100C10C5
:1000E00072088A0071088300F00E700E09007519FD
:1000F0000514751D0510F5198514F51D8510751A63
:100100000515751E0511080083120313850183125E
:100110000317850183160317850183160313203007
:10012000850083120317073085000800831203132C
:100130008B158312031788160800831203131116F8
:1001400091128312031390018F01831603130C1471
:100150000800831603138C1483120317783092005F
:0A016000831203174F3091000800CE
:02400E00C63FAB
:00000001FF
